:030000000201807A
:03001B00020100DF
:1001000020070A200612758DD8758BEF320531E570
:1001100031940C400E0201360531E531941940034B
:10012000020136C2A0C2A7E531B4191D75310075B0
:100130008DD8758BEF32D2A0D2A7E531B4190A75EC
:100140003100758DD8758BEF32758DD8758BEF3288
:1001500030B71130B609C206C207D2A0D29022D25F
:1001600007C20622D206C20722D2B6D2B7758910BC
:1001700075A888758840753100758DD8758BEF220C
:0901800012016912015002018311
:00000001FF
