:0300000002018F6B
:0100130032BA
:03001B00020100DF
:1001000020070A200612758DD8758BEF320531E570
:1001100031947F400E0201360531E53194FF4003F2
:10012000020136C2A0C2A7E531B4FF1D75310075CA
:100130008DD8758BEF32D2A0D2A7E531B4FF0A7506
:100140003100758DD8758BEF32758DD8758BEF3288
:1001500030B61530B719C206C207753100D2A0D229
:1001600090D2A1D2A2D2A722D207C2A1C20622D285
:1001700006C2A2C2072275B6FF75B7FF758844751F
:10018000A88C753100753300758DD8758BEF2212F0
:080190000176120150020192F8
:00000001FF
